:100000000C9462000C948A000C948A000C948A0070
:100010000C948A000C948A000C948A000C948A0038
:100020000C948A000C948A000C948A000C948A0028
:100030000C948A000C948A000C948A000C948A0018
:100040000C9486030C948A000C948A000C948A0009
:100050000C948A000C948A000C948A000C948A00F8
:100060000C94D0030C948A000000000024002700A8
:100070002A000000000023002600290000000000E4
:10008000250028002B0004040404040404040202D4
:100090000202020203030303030301020408102007
:1000A0004080010204081020010204081020000012
:1000B0000008000201000003040700000000000027
:1000C0000000EF0411241FBECFEFD8E0DEBFCDBF8C
:1000D00011E0A0E0B1E0E6EFFCE002C005900D9277
:1000E000A832B107D9F722E0A8E2B1E001C01D9221
:1000F000AD30B207E1F710E0C2E6D0E004C02197CE
:10010000FE010E947306C136D107C9F70E940F0590
:100110000C9479060C940000833081F028F481302F
:1001200099F08230A9F008958730A9F08830C9F09D
:100130008430B1F4809180008F7D03C08091800075
:100140008F7780938000089584B58F7784BD08955C
:1001500084B58F7DFBCF8091B0008F778093B00006
:1001600008958091B0008F7DF9CF1F93CF93DF93D7
:10017000282F30E0F901E255FF4F8491F901E6564E
:10018000FF4FD491F901EA57FF4FC491CC23A9F056
:10019000162F81110E948C00EC2FF0E0EE0FFF1F54
:1001A000E458FF4FA591B4918FB7F894EC911111D9
:1001B00008C0D095DE23DC938FBFDF91CF911F91D4
:1001C0000895DE2BF8CF3FB7F8948091F10190911C
:1001D000F201A091F301B091F40126B5A89B05C0EE
:1001E0002F3F19F00196A11DB11D3FBFBA2FA92FB6
:1001F000982F8827BC01CD01620F711D811D911DB3
:1002000042E0660F771F881F991F4A95D1F708951E
:1002100008950895AF92BF92CF92DF92EF92FF922E
:100220000F931F93CF93DF936C017B018B01040F1E
:10023000151FEB015E01AE18BF08C017D10759F0BA
:100240006991D601ED91FC910190F081E02DC601FC
:100250000995892B79F7C501DF91CF911F910F91F6
:10026000FF90EF90DF90CF90BF90AF9008952091D6
:100270009001260F3327331F21323105ECF42091F2
:10028000B401FC0190E080E0243069F082E0089540
:10029000A09190012191AC0140595E4FA40FB52F60
:1002A000B11D2C930196861798F380919001680FE9
:1002B0006093900180E0089581E008951092B40168
:1002C00081E08093B6011092B50161E082E10E9465
:1002D000B50061E083E10E94B500E9EBF0E08081C8
:1002E0008E7F808380818D7F808388E48093B800B7
:1002F00085E48093BC000895CF93DF9391E09093C1
:100300006F018823B9F0C091B800D091BA008091F4
:10031000BC008A7B8093BC0060E082E10E94B50053
:1003200060E083E10E94B5000E945E01D093BA00B4
:10033000C093B800DF91CF9108950895E091E10155
:100340008091E001E81730F4F0E0E65BFE4F808139
:1003500090E008958FEF9FEF08959091E1018091D3
:10036000E0012FEF3FEF981748F4E92FF0E0E65B4C
:10037000FE4F208130E09F5F9093E101C901089515
:100380008091E0019091E101891B990B0895CF9232
:10039000DF92EF92FF920F931F93CF93DF937C0135
:1003A000CB018A0120914901222389F0EB016B01E5
:1003B000C40ED51ECC15DD0569F06991D701ED910C
:1003C000FC910190F081E02DC7010995F3CF642FD6
:1003D0000E943701C801DF91CF911F910F91FF90CB
:1003E000EF90DF90CF900895CF93DF931F92CDB71A
:1003F000DEB76983209149012223F9F02091DE01C3
:10040000203258F021E030E0FC013383228390E079
:1004100080E00F90DF91CF9108958091DF01E82F68
:10042000F0E0E75DFE4F998190838F5F8093DF015D
:100430008093DE0181E090E0ECCF61E0CE01019697
:100440000E943701F7CFCF92DF92EF92FF920F9386
:100450001F93CF93DF93D62F672FFC01C48181E0D8
:1004600080934901C09328011092DF011092DE01B0
:1004700085EF91E00E94F4016D2F85EF91E00E94DD
:10048000F401D091DE01D13208F092C00E94E30065
:100490006B017C018091B401811165C082E0809381
:1004A000B40181E08093B6018FEF8093B301109285
:1004B000D801D093D701A9E2B1E0E7EBF1E080E009
:1004C000D81385C01092D9018091D901CC0FC82BC7
:1004D000C093D9018091B501813009F07CC01092A0
:1004E000B5010E94E3006B017C018091D9018093EA
:1004F000BB0080916B0190916C01A0916D01B09156
:100500006E01892B8A2B8B2B99F00E94E3000091BE
:100510006B0110916C0120916D0130916E016C198D
:100520007D098E099F090617170728073907E0F18B
:100530008091BC0083FDD9CF85EC8093BC000E94E4
:10054000E3006B017C018091B401823009F445C065
:100550008091B3018F3F61F18091B301803241F10D
:100560008091B30125C080916B0190916C01A091A5
:100570006D01B0916E01892B8A2B8B2B09F48ACFE8
:100580000E94E30000916B0110916C0120916D01BC
:1005900030916E016C197D098E099F0906171707A6
:1005A0002807390708F076CF80916A010E947C0104
:1005B0001092DF011092DE0110924901DF91CF917C
:1005C0001F910F91FF90EF90DF90CF9008959D9134
:1005D00091938F5F75CF85EEB0CF80916B01909135
:1005E0006C01A0916D01B0916E01892B8A2B8B2B30
:1005F00009F4A9CF0E94E30000916B0110916C01F6
:1006000020916D0130916E016C197D098E099F0951
:10061000061717072807390708F095CFC5CFCF93DE
:10062000DF93CDB7DEB728970FB6F894DEBF0FBEC5
:10063000CDBF98E0E0E0F1E0DE01119601900D926F
:100640009A95E1F790910902961710F46FEF690FF0
:1006500070E0660F771F21E030E02C0F3D1F620F26
:10066000731FFB016081860F8068682F70E081E056
:1006700092E028960FB6F894DEBF0FBECDBFDF9193
:10068000CF910C94230270E070640E94230281E0F9
:1006900090E00895089590E080E0089585ED8093BE
:1006A000BC0080916B0190916C01A0916D01B091A3
:1006B0006E010796A11DB11D23E0B695A7959795EC
:1006C00087952A95D1F72091BC0024FD03C0109294
:1006D000B401089540916B0150916C0160916D01DE
:1006E00070916E01452B462B472B69F30097A105AE
:1006F000B10541F02AE22A95F1F700C00197A1095E
:10070000B109E1CF80916A010C947C011F920F9294
:100710000FB60F9211242F933F938F939F93AF9314
:10072000BF938091ED019091EE01A091EF01B09106
:10073000F0013091EC0123E0230F2D3758F501969D
:10074000A11DB11D2093EC018093ED019093EE016A
:10075000A093EF01B093F0018091F1019091F2012B
:10076000A091F301B091F4010196A11DB11D8093F8
:10077000F1019093F201A093F301B093F401BF91C2
:10078000AF919F918F913F912F910F900FBE0F903E
:100790001F90189526E8230F0296A11DB11DD2CFF8
:1007A0001F920F920FB60F9211242F933F934F93E6
:1007B0005F936F937F938F939F93AF93BF93EF93C9
:1007C000FF938091B900887F803609F44AC0F0F524
:1007D000883209F4A7C018F5803109F49BC0B8F439
:1007E000882309F4F9C0883009F494C0FF91EF918F
:1007F000BF91AF919F918F917F916F915F914F9139
:100800003F912F910F900FBE0F901F901895883138
:1008100009F488C0803251F78093B30114C080344A
:1008200009F49DC040F48033B9F38833F9F680931E
:10083000B30185ECB0C0803509F485C0883509F472
:1008400096C0883499F60E944E03D0CF883909F4B7
:100850008CC038F5883729F050F4883611F080378D
:1008600029F683E08093B4011092B20157C0883812
:1008700009F47BC0803919F0803809F0B7CF809136
:10088000B201803208F071C0E091B20181E08E0FB8
:100890008093B2018091BB00F0E0EE56FE4F808362
:1008A0003DC0803B39F0E0F4803A09F479C0883AE1
:1008B00009F09CCF84E08093B401109291011092D2
:1008C0009001E091DC01F091DD01099580919001AA
:1008D00081110FC081E0809390011092700109C0D6
:1008E000803C09F4A6CF883C09F4A3CF883B09F0EB
:1008F0007DCFE091910181E08E0F80939101F0E036
:10090000E059FE4F80818093BB00909191018091CE
:10091000900129C08091D9018093BB0085EC809320
:10092000BC0064CF9091D8018091D701981758F5F9
:10093000E091D80181E08E0F8093D801F0E0E95476
:10094000FE4F8081E9CFE091D80181E08E0F809346
:10095000D8018091BB00F0E0E954FE4F8083909174
:10096000D8018091D7019817C8F285E8D8CFE091D7
:10097000D80181E08E0F8093D8018091BB00F0E018
:10098000E954FE4F80838091B60181115CCF81E0F4
:100990008093B50184EA8093BC001092B40126CF05
:1009A00085EC8093BC001092B4018091B20180323A
:1009B00030F4E091B201F0E0EE56FE4F108260910B
:1009C000B20170E0E091DA01F091DB0182E991E09F
:1009D00009951092B2010ACF1092B30134CFE5EF1E
:1009E000F1E01382128288EE93E0A0E0B0E084830D
:1009F0009583A683B7838EE091E091838083E1E0C5
:100A0000F2E01382128280E291E09183808311866A
:100A10008EE3848384E1828784E083870895CF9383
:100A2000DF9300D0CDB7DEB7789484B5826084BD03
:100A300084B5816084BD85B5826085BD85B58160E2
:100A400085BD80916E00816080936E001092810060
:100A5000809181008260809381008091810081601B
:100A600080938100809180008160809380008091DC
:100A7000B10084608093B1008091B0008160809368
:100A8000B00080917A00846080937A0080917A002F
:100A9000826080937A0080917A00816080937A00EE
:100AA00080917A00806880937A001092C10050E0B3
:100AB00040E0FA01E656FF4F2491FA01EA57FF4F52
:100AC00084918823C9F090E0880F991FFC01E859B0
:100AD000FF4F65917491FC01E458FF4FA591B491CB
:100AE0009FB7F894FB013081822F80958323808308
:100AF000EC912E2B2C939FBF4F5F5F4F4F305105D2
:100B0000C1F61092E1011092E0011092DF01109203
:100B1000DE010E945E0188E091E09093DD01809308
:100B2000DC0189E091E09093DB018093DA0180E1C0
:100B30008093060280910C02823018F098E1909325
:100B40000602809309028BE39DE00197F1F7609123
:100B50000602606270E081E092E00E9423028BE472
:100B600096E40197F1F760910602606270E081E01F
:100B700092E00E94230283E592E00197F1F76091F1
:100B80000602606270E081E092E00E9423026091C0
:100B90000602606270E081E092E00E94230284E03D
:100BA000809307026CE070E081E092E00E942302F3
:100BB00061E070E081E092E00E9423028BE39FE11C
:100BC0000197F1F780910A02882321F060E080E02C
:100BD0000E940F0382E08093080266E070E081E0EB
:100BE00092E00E94230262E070E081E092E00E94C5
:100BF00023028BE39FE10197F1F780900801909029
:100C00000901CE0101966C0140E0642E40E0742E93
:100C1000442443948091E401811106C01092E301C1
:100C20001092E2014092E40110E000E0AA24A394B3
:100C3000B12CF12CE12CF701E255FF4F8491F70123
:100C4000E656FF4F5490F701EA57FF4F3490332098
:100C500081F081110E948C00E32DF0E0EE0FFF1F68
:100C6000EE58FF4FA591B491EC915E2211F00A2944
:100C70001B29AA0CBB1C9FEFE91AF90AEFE0EE163C
:100C8000F104C9F68091E2019091E30196FD20C044
:100C900016FF1EC0B801660F672F661F770B719590
:100CA0006370812F86958F710E940F039A828982CB
:100CB000802F8F778983F60101900020E9F7319723
:100CC000AF014C195D09B60181E092E00E940A0172
:100CD0001093E3010093E2016114710409F49ACFC7
:100CE0000E94000097CFEE0FFF1F0590F491E02DBA
:060CF0000994F894FFCF07
:100CF6000000400014005400000000000000F40151
:100D0600C7014B039D01C001AD019E01000000001B
:080D160043030A014B034A03E9
:00000001FF
